{
  "_format": "hh-sol-artifact-1",
  "contractName": "EcoMentorCerts",
  "sourceName": "contracts/EcoMentorCerts.sol",
  "abi": [
    {
      "inputs": [],
      "stateMutability": "nonpayable",
      "type": "constructor"
    },
    {
      "inputs": [
        {
          "internalType": "address",
          "name": "sender",
          "type": "address"
        },
        {
          "internalType": "uint256",
          "name": "tokenId",
          "type": "uint256"
        },
        {
          "internalType": "address",
          "name": "owner",
          "type": "address"
        }
      ],
      "name": "ERC721IncorrectOwner",
      "type": "error"
    },
    {
      "inputs": [
        {
          "internalType": "address",
          "name": "operator",
          "type": "address"
        },
        {
          "internalType": "uint256",
          "name": "tokenId",
          "type": "uint256"
        }
      ],
      "name": "ERC721InsufficientApproval",
      "type": "error"
    },
    {
      "inputs": [
        {
          "internalType": "address",
          "name": "approver",
          "type": "address"
        }
      ],
      "name": "ERC721InvalidApprover",
      "type": "error"
    },
    {
      "inputs": [
        {
          "internalType": "address",
          "name": "operator",
          "type": "address"
        }
      ],
      "name": "ERC721InvalidOperator",
      "type": "error"
    },
    {
      "inputs": [
        {
          "internalType": "address",
          "name": "owner",
          "type": "address"
        }
      ],
      "name": "ERC721InvalidOwner",
      "type": "error"
    },
    {
      "inputs": [
        {
          "internalType": "address",
          "name": "receiver",
          "type": "address"
        }
      ],
      "name": "ERC721InvalidReceiver",
      "type": "error"
    },
    {
      "inputs": [
        {
          "internalType": "address",
          "name": "sender",
          "type": "address"
        }
      ],
      "name": "ERC721InvalidSender",
      "type": "error"
    },
    {
      "inputs": [
        {
          "internalType": "uint256",
          "name": "tokenId",
          "type": "uint256"
        }
      ],
      "name": "ERC721NonexistentToken",
      "type": "error"
    },
    {
      "inputs": [
        {
          "internalType": "address",
          "name": "owner",
          "type": "address"
        }
      ],
      "name": "OwnableInvalidOwner",
      "type": "error"
    },
    {
      "inputs": [
        {
          "internalType": "address",
          "name": "account",
          "type": "address"
        }
      ],
      "name": "OwnableUnauthorizedAccount",
      "type": "error"
    },
    {
      "anonymous": false,
      "inputs": [
        {
          "indexed": true,
          "internalType": "address",
          "name": "owner",
          "type": "address"
        },
        {
          "indexed": true,
          "internalType": "address",
          "name": "approved",
          "type": "address"
        },
        {
          "indexed": true,
          "internalType": "uint256",
          "name": "tokenId",
          "type": "uint256"
        }
      ],
      "name": "Approval",
      "type": "event"
    },
    {
      "anonymous": false,
      "inputs": [
        {
          "indexed": true,
          "internalType": "address",
          "name": "owner",
          "type": "address"
        },
        {
          "indexed": true,
          "internalType": "address",
          "name": "operator",
          "type": "address"
        },
        {
          "indexed": false,
          "internalType": "bool",
          "name": "approved",
          "type": "bool"
        }
      ],
      "name": "ApprovalForAll",
      "type": "event"
    },
    {
      "anonymous": false,
      "inputs": [
        {
          "indexed": true,
          "internalType": "address",
          "name": "to",
          "type": "address"
        },
        {
          "indexed": false,
          "internalType": "uint256",
          "name": "tokenId",
          "type": "uint256"
        },
        {
          "indexed": false,
          "internalType": "string",
          "name": "uri",
          "type": "string"
        }
      ],
      "name": "CertificateMinted",
      "type": "event"
    },
    {
      "anonymous": false,
      "inputs": [
        {
          "indexed": true,
          "internalType": "uint256",
          "name": "tokenId",
          "type": "uint256"
        }
      ],
      "name": "CertificateRevoked",
      "type": "event"
    },
    {
      "anonymous": false,
      "inputs": [
        {
          "indexed": true,
          "internalType": "address",
          "name": "previousOwner",
          "type": "address"
        },
        {
          "indexed": true,
          "internalType": "address",
          "name": "newOwner",
          "type": "address"
        }
      ],
      "name": "OwnershipTransferred",
      "type": "event"
    },
    {
      "anonymous": false,
      "inputs": [
        {
          "indexed": true,
          "internalType": "address",
          "name": "from",
          "type": "address"
        },
        {
          "indexed": true,
          "internalType": "address",
          "name": "to",
          "type": "address"
        },
        {
          "indexed": true,
          "internalType": "uint256",
          "name": "tokenId",
          "type": "uint256"
        }
      ],
      "name": "Transfer",
      "type": "event"
    },
    {
      "inputs": [
        {
          "internalType": "address",
          "name": "to",
          "type": "address"
        },
        {
          "internalType": "uint256",
          "name": "tokenId",
          "type": "uint256"
        }
      ],
      "name": "approve",
      "outputs": [],
      "stateMutability": "nonpayable",
      "type": "function"
    },
    {
      "inputs": [
        {
          "internalType": "address",
          "name": "owner",
          "type": "address"
        }
      ],
      "name": "balanceOf",
      "outputs": [
        {
          "internalType": "uint256",
          "name": "",
          "type": "uint256"
        }
      ],
      "stateMutability": "view",
      "type": "function"
    },
    {
      "inputs": [
        {
          "internalType": "uint256",
          "name": "tokenId",
          "type": "uint256"
        }
      ],
      "name": "getApproved",
      "outputs": [
        {
          "internalType": "address",
          "name": "",
          "type": "address"
        }
      ],
      "stateMutability": "view",
      "type": "function"
    },
    {
      "inputs": [
        {
          "internalType": "address",
          "name": "owner",
          "type": "address"
        },
        {
          "internalType": "address",
          "name": "operator",
          "type": "address"
        }
      ],
      "name": "isApprovedForAll",
      "outputs": [
        {
          "internalType": "bool",
          "name": "",
          "type": "bool"
        }
      ],
      "stateMutability": "view",
      "type": "function"
    },
    {
      "inputs": [
        {
          "internalType": "address",
          "name": "student",
          "type": "address"
        },
        {
          "internalType": "string",
          "name": "uri",
          "type": "string"
        }
      ],
      "name": "mintCertificate",
      "outputs": [],
      "stateMutability": "nonpayable",
      "type": "function"
    },
    {
      "inputs": [],
      "name": "name",
      "outputs": [
        {
          "internalType": "string",
          "name": "",
          "type": "string"
        }
      ],
      "stateMutability": "view",
      "type": "function"
    },
    {
      "inputs": [],
      "name": "nextTokenId",
      "outputs": [
        {
          "internalType": "uint256",
          "name": "",
          "type": "uint256"
        }
      ],
      "stateMutability": "view",
      "type": "function"
    },
    {
      "inputs": [],
      "name": "owner",
      "outputs": [
        {
          "internalType": "address",
          "name": "",
          "type": "address"
        }
      ],
      "stateMutability": "view",
      "type": "function"
    },
    {
      "inputs": [
        {
          "internalType": "uint256",
          "name": "tokenId",
          "type": "uint256"
        }
      ],
      "name": "ownerOf",
      "outputs": [
        {
          "internalType": "address",
          "name": "",
          "type": "address"
        }
      ],
      "stateMutability": "view",
      "type": "function"
    },
    {
      "inputs": [],
      "name": "renounceOwnership",
      "outputs": [],
      "stateMutability": "nonpayable",
      "type": "function"
    },
    {
      "inputs": [
        {
          "internalType": "uint256",
          "name": "tokenId",
          "type": "uint256"
        }
      ],
      "name": "revokeCertificate",
      "outputs": [],
      "stateMutability": "nonpayable",
      "type": "function"
    },
    {
      "inputs": [
        {
          "internalType": "address",
          "name": "from",
          "type": "address"
        },
        {
          "internalType": "address",
          "name": "to",
          "type": "address"
        },
        {
          "internalType": "uint256",
          "name": "tokenId",
          "type": "uint256"
        }
      ],
      "name": "safeTransferFrom",
      "outputs": [],
      "stateMutability": "nonpayable",
      "type": "function"
    },
    {
      "inputs": [
        {
          "internalType": "address",
          "name": "from",
          "type": "address"
        },
        {
          "internalType": "address",
          "name": "to",
          "type": "address"
        },
        {
          "internalType": "uint256",
          "name": "tokenId",
          "type": "uint256"
        },
        {
          "internalType": "bytes",
          "name": "data",
          "type": "bytes"
        }
      ],
      "name": "safeTransferFrom",
      "outputs": [],
      "stateMutability": "nonpayable",
      "type": "function"
    },
    {
      "inputs": [
        {
          "internalType": "address",
          "name": "operator",
          "type": "address"
        },
        {
          "internalType": "bool",
          "name": "approved",
          "type": "bool"
        }
      ],
      "name": "setApprovalForAll",
      "outputs": [],
      "stateMutability": "nonpayable",
      "type": "function"
    },
    {
      "inputs": [
        {
          "internalType": "bytes4",
          "name": "interfaceId",
          "type": "bytes4"
        }
      ],
      "name": "supportsInterface",
      "outputs": [
        {
          "internalType": "bool",
          "name": "",
          "type": "bool"
        }
      ],
      "stateMutability": "view",
      "type": "function"
    },
    {
      "inputs": [],
      "name": "symbol",
      "outputs": [
        {
          "internalType": "string",
          "name": "",
          "type": "string"
        }
      ],
      "stateMutability": "view",
      "type": "function"
    },
    {
      "inputs": [
        {
          "internalType": "uint256",
          "name": "tokenId",
          "type": "uint256"
        }
      ],
      "name": "tokenURI",
      "outputs": [
        {
          "internalType": "string",
          "name": "",
          "type": "string"
        }
      ],
      "stateMutability": "view",
      "type": "function"
    },
    {
      "inputs": [
        {
          "internalType": "address",
          "name": "from",
          "type": "address"
        },
        {
          "internalType": "address",
          "name": "to",
          "type": "address"
        },
        {
          "internalType": "uint256",
          "name": "tokenId",
          "type": "uint256"
        }
      ],
      "name": "transferFrom",
      "outputs": [],
      "stateMutability": "nonpayable",
      "type": "function"
    },
    {
      "inputs": [
        {
          "internalType": "address",
          "name": "newOwner",
          "type": "address"
        }
      ],
      "name": "transferOwnership",
      "outputs": [],
      "stateMutability": "nonpayable",
      "type": "function"
    },
    {
      "inputs": [
        {
          "internalType": "uint256",
          "name": "tokenId",
          "type": "uint256"
        },
        {
          "internalType": "address",
          "name": "holder",
          "type": "address"
        }
      ],
      "name": "verifyCertificate",
      "outputs": [
        {
          "internalType": "bool",
          "name": "",
          "type": "bool"
        }
      ],
      "stateMutability": "view",
      "type": "function"
    }
  ],
  "bytecode": "0x608060405260016007553480156200001657600080fd5b50336040518060400160405280601581526020017f45636f4d656e746f722043657274696669636174650000000000000000000000815250604051806040016040528060078152602001661150d3d0d1549560ca1b81525081600090816200007f9190620001c9565b5060016200008e8282620001c9565b5050506001600160a01b038116620000c057604051631e4fbdf760e01b81526000600482015260240160405180910390fd5b620000cb81620000d2565b5062000295565b600680546001600160a01b038381166001600160a01b0319831681179093556040519116919082907f8be0079c531659141344cd1fd0a4f28419497f9722a3daafe3b4186f6b6457e090600090a35050565b634e487b7160e01b600052604160045260246000fd5b600181811c908216806200014f57607f821691505b6020821081036200017057634e487b7160e01b600052602260045260246000fd5b50919050565b601f821115620001c457600081815260208120601f850160051c810160208610156200019f5750805b601f850160051c820191505b81811015620001c057828155600101620001ab565b5050505b505050565b81516001600160401b03811115620001e557620001e562000124565b620001fd81620001f684546200013a565b8462000176565b602080601f8311600181146200023557600084156200021c5750858301515b600019600386901b1c1916600185901b178555620001c0565b600085815260208120601f198616915b82811015620002665788860151825594840194600190910190840162000245565b5085821015620002855787850151600019600388901b60f8161c191681555b5050505050600190811b01905550565b61143180620002a56000396000f3fe608060405234801561001057600080fd5b506004361061012c5760003560e01c8063715018a6116100ad578063a22cb46511610071578063a22cb4651461026b578063b88d4fde1461027e578063c87b56dd14610291578063e985e9c5146102a4578063f2fde38b146102b757600080fd5b8063715018a61461022e57806375794a3c146102365780638da5cb5b1461023f57806394b465251461025057806395d89b411461026357600080fd5b8063095ea7b3116100f4578063095ea7b3146101c157806323b872dd146101d457806342842e0e146101e75780636352211e146101fa57806370a082311461020d57600080fd5b806301ffc9a71461013157806306f5497e1461015957806306fdde031461016e5780630712249f14610183578063081812fc14610196575b600080fd5b61014461013f366004610ef9565b6102ca565b60405190151581526020015b60405180910390f35b61016c610167366004610f16565b61031c565b005b6101766103c4565b6040516101509190610f75565b61016c610191366004611030565b610456565b6101a96101a4366004610f16565b6104e0565b6040516001600160a01b039091168152602001610150565b61016c6101cf366004611092565b610509565b61016c6101e23660046110bc565b610518565b61016c6101f53660046110bc565b6105a3565b6101a9610208366004610f16565b6105c3565b61022061021b3660046110f8565b6105ce565b604051908152602001610150565b61016c610616565b61022060075481565b6006546001600160a01b03166101a9565b61014461025e366004611113565b61062a565b610176610670565b61016c61027936600461113f565b61067f565b61016c61028c36600461117b565b61068a565b61017661029f366004610f16565b6106a2565b6101446102b23660046111f7565b6107a7565b61016c6102c53660046110f8565b6107d5565b60006001600160e01b031982166380ac58cd60e01b14806102fb57506001600160e01b03198216635b5e139f60e01b145b8061031657506301ffc9a760e01b6001600160e01b03198316145b92915050565b610324610813565b6000818152600260205260409020546001600160a01b031661038d5760405162461bcd60e51b815260206004820152601a60248201527f436572746966696361746520646f6573206e6f7420657869737400000000000060448201526064015b60405180910390fd5b61039681610840565b60405181907fefa6c5f47ac2523bb4db18032377bf7fdce0fa9d86eddcae1ca9bba38be615d790600090a250565b6060600080546103d390611221565b80601f01602080910402602001604051908101604052809291908181526020018280546103ff90611221565b801561044c5780601f106104215761010080835404028352916020019161044c565b820191906000526020600020905b81548152906001019060200180831161042f57829003601f168201915b5050505050905090565b61045e610813565b600780546000918261046f8361125b565b91905055905061047f838261087b565b600081815260086020526040902061049783826112c8565b50826001600160a01b03167fde5d6fd45e32fffb472bcbaeedf6a2e3944633c9701eec7d99adfa07ad6104c182846040516104d3929190611388565b60405180910390a2505050565b60006104eb82610895565b506000828152600460205260409020546001600160a01b0316610316565b6105148282336108ce565b5050565b6001600160a01b03821661054257604051633250574960e11b815260006004820152602401610384565b600061054f8383336108db565b9050836001600160a01b0316816001600160a01b03161461059d576040516364283d7b60e01b81526001600160a01b0380861660048301526024820184905282166044820152606401610384565b50505050565b6105be8383836040518060200160405280600081525061068a565b505050565b600061031682610895565b60006001600160a01b0382166105fa576040516322718ad960e21b815260006004820152602401610384565b506001600160a01b031660009081526003602052604090205490565b61061e610813565b6106286000610981565b565b6000828152600260205260408120546001600160a01b0316151580156106695750816001600160a01b031661065e846105c3565b6001600160a01b0316145b9392505050565b6060600180546103d390611221565b6105143383836109d3565b610695848484610518565b61059d3385858585610a72565b6000818152600260205260409020546060906001600160a01b03166107095760405162461bcd60e51b815260206004820152601a60248201527f436572746966696361746520646f6573206e6f742065786973740000000000006044820152606401610384565b6000828152600860205260409020805461072290611221565b80601f016020809104026020016040519081016040528092919081815260200182805461074e90611221565b801561079b5780601f106107705761010080835404028352916020019161079b565b820191906000526020600020905b81548152906001019060200180831161077e57829003601f168201915b50505050509050919050565b6001600160a01b03918216600090815260056020908152604080832093909416825291909152205460ff1690565b6107dd610813565b6001600160a01b03811661080757604051631e4fbdf760e01b815260006004820152602401610384565b61081081610981565b50565b6006546001600160a01b031633146106285760405163118cdaa760e01b8152336004820152602401610384565b600061084f60008360006108db565b90506001600160a01b03811661051457604051637e27328960e01b815260048101839052602401610384565b610514828260405180602001604052806000815250610b9d565b6000818152600260205260408120546001600160a01b03168061031657604051637e27328960e01b815260048101849052602401610384565b6105be8383836001610bb5565b6000828152600260205260408120546001600160a01b0316801580159061090a57506001600160a01b03851615155b1561096d5760405162461bcd60e51b815260206004820152602d60248201527f536f756c626f756e643a204365727469666963617465732063616e6e6f74206260448201526c19481d1c985b9cd9995c9c9959609a1b6064820152608401610384565b610978858585610cbb565b95945050505050565b600680546001600160a01b038381166001600160a01b0319831681179093556040519116919082907f8be0079c531659141344cd1fd0a4f28419497f9722a3daafe3b4186f6b6457e090600090a35050565b6001600160a01b038216610a0557604051630b61174360e31b81526001600160a01b0383166004820152602401610384565b6001600160a01b03838116600081815260056020908152604080832094871680845294825291829020805460ff191686151590811790915591519182527f17307eab39ab6107e8899845ad3d59bd9653f200f220920489ca2b5937696c31910160405180910390a3505050565b6001600160a01b0383163b15610b9657604051630a85bd0160e11b81526001600160a01b0384169063150b7a0290610ab49088908890879087906004016113a1565b6020604051808303816000875af1925050508015610aef575060408051601f3d908101601f19168201909252610aec918101906113de565b60015b610b58573d808015610b1d576040519150601f19603f3d011682016040523d82523d6000602084013e610b22565b606091505b508051600003610b5057604051633250574960e11b81526001600160a01b0385166004820152602401610384565b805160208201fd5b6001600160e01b03198116630a85bd0160e11b14610b9457604051633250574960e11b81526001600160a01b0385166004820152602401610384565b505b5050505050565b610ba78383610db4565b6105be336000858585610a72565b8080610bc957506001600160a01b03821615155b15610c8b576000610bd984610895565b90506001600160a01b03831615801590610c055750826001600160a01b0316816001600160a01b031614155b8015610c185750610c1681846107a7565b155b15610c415760405163a9fbf51f60e01b81526001600160a01b0384166004820152602401610384565b8115610c895783856001600160a01b0316826001600160a01b03167f8c5be1e5ebec7d5bd14f71427d1e84f3dd0314c0f7b2291e5b200ac8c7c3b92560405160405180910390a45b505b5050600090815260046020526040902080546001600160a01b0319166001600160a01b0392909216919091179055565b6000828152600260205260408120546001600160a01b0390811690831615610ce857610ce8818486610e19565b6001600160a01b03811615610d2657610d05600085600080610bb5565b6001600160a01b038116600090815260036020526040902080546000190190555b6001600160a01b03851615610d55576001600160a01b0385166000908152600360205260409020805460010190555b60008481526002602052604080822080546001600160a01b0319166001600160a01b0389811691821790925591518793918516917fddf252ad1be2c89b69c2b068fc378daa952ba7f163c4a11628f55a4df523b3ef91a4949350505050565b6001600160a01b038216610dde57604051633250574960e11b815260006004820152602401610384565b6000610dec838360006108db565b90506001600160a01b038116156105be576040516339e3563760e11b815260006004820152602401610384565b610e24838383610e7d565b6105be576001600160a01b038316610e5257604051637e27328960e01b815260048101829052602401610384565b60405163177e802f60e01b81526001600160a01b038316600482015260248101829052604401610384565b60006001600160a01b03831615801590610edb5750826001600160a01b0316846001600160a01b03161480610eb75750610eb784846107a7565b80610edb57506000828152600460205260409020546001600160a01b038481169116145b949350505050565b6001600160e01b03198116811461081057600080fd5b600060208284031215610f0b57600080fd5b813561066981610ee3565b600060208284031215610f2857600080fd5b5035919050565b6000815180845260005b81811015610f5557602081850181015186830182015201610f39565b506000602082860101526020601f19601f83011685010191505092915050565b6020815260006106696020830184610f2f565b80356001600160a01b0381168114610f9f57600080fd5b919050565b634e487b7160e01b600052604160045260246000fd5b600067ffffffffffffffff80841115610fd557610fd5610fa4565b604051601f8501601f19908116603f01168101908282118183101715610ffd57610ffd610fa4565b8160405280935085815286868601111561101657600080fd5b858560208301376000602087830101525050509392505050565b6000806040838503121561104357600080fd5b61104c83610f88565b9150602083013567ffffffffffffffff81111561106857600080fd5b8301601f8101851361107957600080fd5b61108885823560208401610fba565b9150509250929050565b600080604083850312156110a557600080fd5b6110ae83610f88565b946020939093013593505050565b6000806000606084860312156110d157600080fd5b6110da84610f88565b92506110e860208501610f88565b9150604084013590509250925092565b60006020828403121561110a57600080fd5b61066982610f88565b6000806040838503121561112657600080fd5b8235915061113660208401610f88565b90509250929050565b6000806040838503121561115257600080fd5b61115b83610f88565b91506020830135801515811461117057600080fd5b809150509250929050565b6000806000806080858703121561119157600080fd5b61119a85610f88565b93506111a860208601610f88565b925060408501359150606085013567ffffffffffffffff8111156111cb57600080fd5b8501601f810187136111dc57600080fd5b6111eb87823560208401610fba565b91505092959194509250565b6000806040838503121561120a57600080fd5b61121383610f88565b915061113660208401610f88565b600181811c9082168061123557607f821691505b60208210810361125557634e487b7160e01b600052602260045260246000fd5b50919050565b60006001820161127b57634e487b7160e01b600052601160045260246000fd5b5060010190565b601f8211156105be57600081815260208120601f850160051c810160208610156112a95750805b601f850160051c820191505b81811015610b94578281556001016112b5565b815167ffffffffffffffff8111156112e2576112e2610fa4565b6112f6816112f08454611221565b84611282565b602080601f83116001811461132b57600084156113135750858301515b600019600386901b1c1916600185901b178555610b94565b600085815260208120601f198616915b8281101561135a5788860151825594840194600190910190840161133b565b50858210156113785787850151600019600388901b60f8161c191681555b5050505050600190811b01905550565b828152604060208201526000610edb6040830184610f2f565b6001600160a01b03858116825284166020820152604081018390526080606082018190526000906113d490830184610f2f565b9695505050505050565b6000602082840312156113f057600080fd5b815161066981610ee356fea26469706673582212200c93b59b1a8ea3477c93cb84a977efb32008af8181f4fa3f18657e00540d88d164736f6c63430008150033",
  "linkReferences": {},
  "deployedLinkReferences": {}
}